:020000040800F2
:10000000002800206D130008D90F0008DF0F00083A
:10001000E50F0008EB0F0008F10F000800000000DA
:10002000000000000000000000000000F70F0008C2
:1000300003100008000000000F1000081B1000084B
:10004000B5130008B5130008B5130008B513000870
:10005000B5130008B5130008B5130008B513000860
:10006000B5130008B5130008B5130008B513000850
:10007000B5130008B5130008B5130008B513000840
:10008000B5130008B5130008B5130008B513000830
:10009000B5130008B5130008B5130008B513000820
:1000A000B5130008B5130008B5130008B513000810
:1000B00029100008B513000800000000B51300085F
:1000C000B51300080000000000000000B513000890
:1000D00000000000B5130008B51300080000000080
:1000E000B5130008B5130008B513000800000000A0
:1000F0000000000000000000000000000000000000
:0C01000000000000000000005FF808F1A3
:10010C0010B5054C237833B9044B13B10448AFF345
:10011C0000800123237010BD2C0000200000000083
:10012C000C2A000808B5034B1BB103490348AFF375
:10013C00008008BD00000000300000200C2A0008E0
:10014C0080B582B000AF78607B68002B09D10022AB
:10015C003F21424801F02BFC012240213F4801F095
:10016C0026FC7B68012B09D1012279213B4801F047
:10017C001EFC00220621394801F019FC7B68022B79
:10018C0009D100225B21354801F011FC0122242108
:10019C00324801F00CFC7B68032B09D100224F2163
:1001AC002E4801F004FC012230212C4801F0FFFB09
:1001BC007B68042B09D100226621284801F0F7FB4B
:1001CC0001221921254801F0F2FB7B68052B09D18E
:1001DC0000226D21214801F0EAFB012212211F4867
:1001EC0001F0E5FB7B68062B09D100227D211B4821
:1001FC0001F0DDFB01220221184801F0D8FB7B68DD
:10020C00072B09D100220721144801F0D0FB012251
:10021C007821124801F0CBFB7B68082B04D100221B
:10022C007F210E4801F0C3FB7B68092B09D100220A
:10023C006F210A4801F0BBFB01221021074801F095
:10024C00B6FB7B68B3F1FF3F04D101227F21034849
:10025C0001F0ADFB00BF0837BD4680BD000C01406E
:10026C0080B582B000AF78607B68002B0BD1002288
:10027C004FF4FC514B4801F09AFB01224FF4005112
:10028C00484801F094FB7B68012B0BD101224FF401
:10029C007251444801F08BFB00224FF440714148ED
:1002AC0001F085FB7B68022B0BD100224FF43651F9
:1002BC003C4801F07CFB01224FF49051394801F08D
:1002CC0076FB7B68032B0BD100224FF41E51354873
:1002DC0001F06DFB01224FF4C051324801F067FB75
:1002EC007B68042B0BD100224FF44C512D4801F0AC
:1002FC005EFB01224FF448612A4801F058FB7B68F1
:10030C00052B0BD100224FF45A51264801F04FFB1C
:10031C0001224FF41061234801F049FB7B68062B46
:10032C000BD100224FF47A511E4801F040FB012200
:10033C004FF480711B4801F03AFB7B68072B0BD103
:10034C0000224FF46071174801F031FB01224FF489
:10035C007051144801F02BFB7B68082B05D100224F
:10036C004FF47E510F4801F022FB7B68092B0BD117
:10037C0000224FF45E510B4801F019FB01224FF49F
:10038C000061084801F013FB7B68B3F1FF3F05D116
:10039C0001224FF47E51034801F009FB00BF0837DE
:1003AC00BD4680BD000C014080B586B000AF7860C2
:1003BC007B68B3F1FF3F03D14FF0FF30FFF750FFE5
:1003CC007B68002B30DD7B68092B2DDC00F092FF65
:1003DC0078617B69032B0ED100224FF48071374872
:1003EC0001F0E5FA01224FF40071344801F0DFFA14
:1003FC000020FFF735FF7B69022B0ED101224FF451
:10040C0080712E4801F0D3FA00224FF400712B4872
:10041C0001F0CDFA7868FFF723FF7B69012B03D13C
:10042C004FF4FA7000F022FF7B68092B42DD00F0DC
:10043C0061FF38617B68224A82FB03129210DB1742
:10044C00D31AFB607A681E4B83FB02139910D317E7
:10045C00C91A0B469B000B445B00D31ABB603B696B
:10046C00032B0ED100224FF48071144801F09FFA37
:10047C0001224FF40071114801F099FAF868FFF766
:10048C00EFFE3B69022B0ED101224FF480710B4819
:10049C0001F08DFA00224FF40071084801F087FA40
:1004AC00B868FFF7DDFE3B69012B03D14FF4FA70FE
:1004BC0000F0DCFE00BF1837BD4680BD00080140CF
:1004CC006766666680B586B000AF78607B68B3F10E
:1004DC00FF3F03D14FF0FF30FFF732FE7B68002B5C
:1004EC002CDD7B68092B29DC00F004FF78617B692B
:1004FC00032B0CD100224021334801F058FA012281
:10050C008021314801F053FA0020FFF719FE7B6976
:10051C00022B0CD1012240212B4801F048FA002279
:10052C008021294801F043FA7868FFF709FE7B69BE
:10053C00012B03D14FF4FA7000F098FE7B68092B65
:10054C003EDD00F0D7FE38617B68204A82FB031247
:10055C009210DB17D31AFB607A681C4B83FB0213D7
:10056C009910D317C91A0B469B000B445B00D31A86
:10057C00BB603B69032B0CD100224021124801F0D7
:10058C0016FA01228021104801F011FAF868FFF7E1
:10059C00D7FD3B69022B0CD1012240210A4801F006
:1005AC0006FA00228021084801F001FAB868FFF72A
:1005BC00C7FD3B69012B03D14FF4FA7000F056FED6
:1005CC0000BF1837BD4680BD0008014067666666EF
:1005DC0080B588B000AFF860B9607A60FB68B3F1A1
:1005EC00FF3F18D1BB68002B15D17B68002B12D1B3
:1005FC0000F02CFEF861FB69012B0CD12421A148E1
:10060C0001F0EDF901221B219E4801F0D0F94FF4C5
:10061C00FA7000F0E5FD7B68B3F1FF3F18D1BB68C1
:10062C00002B15D1FB68002B12D100F00FFEB86126
:10063C00BB69012B0CD11221924801F0D0F9012297
:10064C002D21904801F0B3F94FF4FA7000F0C8FD79
:10065C00BB68B3F1FF3F18D1FB68002B15D17B6849
:10066C00002B12D100F0F2FD78617B69012B0CD1CB
:10067C000921844801F0B3F901223621814801F0A7
:10068C0096F94FF4FA7000F0ABFDBA687B6813442E
:10069C00FA689A4240F02B817B4B1B78022B32D0AC
:1006AC00022B00F38B80002B02D0012B56D085E05F
:1006BC0000222021734801F07AF901221821714897
:1006CC0001F075F9714B1B68FA68D31A1846FFF7DD
:1006DC006BFE00F0E9FC0346012B6AD16B4B1B68E7
:1006EC0001336A4A1360694B1B68FA689A4205D158
:1006FC00654B02221A70654B00221A604FF47A7017
:10070C0000F09CFC55E0002208215E4801F04FF9F6
:10071C00012230215B4801F04AF95C4B1B68BA6836
:10072C00D31A1846FFF740FE00F0BEFC0346012B1F
:10073C0041D1564B1B680133544A1360534B1B6811
:10074C00BA689A4205D1504B01221A704F4B0022C5
:10075C001A604FF47A7000F071FC2CE0002210212A
:10076C00484801F024F901222821464801F01FF9DC
:10077C00464B1B687A68D31A1846FFF715FE00F033
:10078C0093FC0346012B18D1404B1B6801333F4AA5
:10079C0013603E4B1B687A689A4205D13A4B002293
:1007AC001A703A4B00221A604FF47A7000F046FC33
:1007BC0003E000BF02E000BF00E000BF344B1B7839
:1007CC00022B33D0022B00F3C880002B02D0012B5C
:1007DC0062D0C2E0002204212A4801F0E8F801228C
:1007EC000321284801F0E3F82A4B1B68FA68D31A56
:1007FC001846FFF767FE00F09DFC0346012B40F006
:10080C00A780244B1B680133224A1360214B1B68C1
:10081C00FA689A4205D11E4B02221A701D4B002217
:10082C001A604FF47A7000F04FFC91E00022012125
:10083C00144801F0BCF801220621124801F0B7F867
:10084C00144B1B68BA68D31A1846FFF73BFE00F02E
:10085C0071FC0346012B7DD10E4B1B6801330D4AF5
:10086C0013600C4B1B68BA689A4205D1084B0122E5
:10087C001A70084B00221A604FF47A7000F024FCB6
:10088C0068E000BF00080140480000204C00002038
:10089C00000000205000002000220221314801F00D
:1008AC0086F8012205212F4801F081F82E4B1B6898
:1008BC007A68D31A1846FFF705FE00F03BFC034696
:1008CC00012B49D1284B1B680133274A1360264B57
:1008DC001B687A689A4205D1244B00221A70224B6D
:1008EC0000221A604FF47A7000F0EEFB34E0FB68E3
:1008FC00B3F1FF3F31D0BB68B3F1FF3F2DD07B6824
:10090C00B3F1FF3F29D000F0F5FC386101223F2103
:10091C00144801F04CF800224FF48071114801F09A
:10092C0046F800224FF400710E4801F040F8002206
:10093C0040210C4801F03BF800228021094801F0CD
:10094C0036F80820FFF78CFC0820FFF7F9FB04E0D1
:10095C0000BF02E000BF00E000BF00BF2037BD4673
:10096C0080BD00BF000801405000002000000020A6
:10097C0090B583B000AF0023FB7146E0FA79FB79A8
:10098C002649895C264AD154FB79264A32F8133021
:10099C00FC791946244800F0F3FF03461A461F4B16
:1009AC001A55FB791D4AD25CFB791D49CB5C9A42E6
:1009BC0005D1FA79FB791949895C1C4AD154FB7928
:1009CC001A4AD35C002B14D1FB79194A32F8133034
:1009DC00632B09D8FB79164A32F81320013291B2F5
:1009EC00134A22F813100DE0FB79124A0121D1545D
:1009FC0008E0FB790E4A002122F81310FB790D4A0E
:100A0C000021D154FB790133FB71FB79022BB5D951
:100A1C0000BF00BF0C37BD4690BD00BF5800002082
:100A2C005C0000200400002000080140540000205D
:100A3C00640000206000002080B483B000AF034647
:100A4C00FB71FB79022B01D9002307E0FB79064AE5
:100A5C00D35C002B0CBF01230023DBB218460C37F0
:100A6C00BD4680BC704700BF5400002080B483B0EA
:100A7C0000AF0346FB71FB79022B01D9FF2307E082
:100A8C00FB79064AD35C012B0CBF01230023DBB29C
:100A9C0018460C37BD4680BC704700BF6000002074
:100AAC0080B582B000AF00F081FC00F021F800F0BE
:100ABC00A7F800F059F80D4801F0E2FB4FF47A70FA
:100ACC0000F0BCFA4FF47A7000F0FEFAC82000F087
:100ADC0041FB4FF4FA7000F083FB4FF4FA7000F016
:100AEC00C5FB01237B6000F0F5F8FCE794000020C7
:100AFC0080B590B000AF07F11803282200211846EA
:100B0C0001F076FF3B1D00221A605A609A60DA6091
:100B1C001A610223BB610123BB621023FB62002319
:100B2C007B6307F11803184600F072FF0346002B95
:100B3C0001D000F0C9F80F237B600023BB600023B9
:100B4C00FB6000233B6100237B613B1D00211846A9
:100B5C0001F0DEF90346002B01D000F0B5F800BF20
:100B6C004037BD4680BD000080B586B000AF07F1B0
:100B7C00080300221A605A609A60DA603B46002231
:100B8C001A605A601D4B4FF080421A601B4B41F6A5
:100B9C003F725A60194B00229A60184B0922DA6096
:100BAC00164B00221A61154B00229A61134801F072
:100BBC0017FB0346002B01D000F086F84FF480534E
:100BCC00BB6007F1080319460C4801F0ADFC034665
:100BDC00002B01D000F078F800233B6000237B60F1
:100BEC003B461946054801F075FE0346002B01D023
:100BFC0000F06AF800BF1837BD4680BD9400002095
:100C0C0080B586B000AF07F1080300221A605A6065
:100C1C009A60DA60294B9B69284A43F0040393617C
:100C2C00264B9B6903F004037B607B68234B9B6919
:100C3C00224A43F008039361204B9B6903F008039D
:100C4C003B603B68012241F6FF711D4800F0AFFE8E
:100C5C00012243F6FF711B4800F0A9FE41F6FF7319
:100C6C00BB600123FB6000233B6102237B6107F126
:100C7C0008031946124800F009FD43F6FF73BB60E8
:100C8C000123FB6000233B6102237B6107F1080316
:100C9C0019460C4800F0FAFC4FF46043BB6000238B
:100CAC00FB6000233B6107F108031946044800F080
:100CBC00EDFC00BF1837BD4680BD00BF00100240E0
:100CCC0000080140000C014080B400AF72B600BFB8
:100CDC00FEE7000080B500AF8B4B1B78032B00F2B6
:100CEC00118101A252F823F0050D0008590D0008DE
:100CFC00F30D00087D0E0008844B1B68844A1168B4
:100D0C00844A12681846FFF763FC00F059FA034650
:100D1C00002B00F0F0800020FFF78EFE0346002B26
:100D2C0005D10020FFF7A2FE0346002B0AD07A4B18
:100D3C0001221A60794B1B680133784A1360724B9D
:100D4C0001221A70642000F005FAD4E0734B1B6882
:100D5C001846FFF729FB002200214FF0FF30FFF768
:100D6C0037FC6D4B1B681846FFF7ACFB00F028FAFC
:100D7C000346002B00F0C1800020FFF75DFE034608
:100D8C00002B05D10020FFF771FE0346002B0AD083
:100D9C00614B01221A60614B1B6801335F4A13607F
:100DAC00594B02221A700120FFF746FE0346002B16
:100DBC000BD0594B1B680133574A1360564B1B68B9
:100DCC00632B02DD544B00221A600220FFF734FE25
:100DDC000346002B03D0504B1B684C4A1360642015
:100DEC0000F0B8F989E04D4B1B681846FFF7DCFAA8
:100DFC004FF0FF3200210020FFF7EAFB464B1B6847
:100E0C001846FFF75FFB00F0DBF90346002B76D0AA
:100E1C000020FFF711FE0346002B05D10020FFF741
:100E2C0025FE0346002B0AD03B4B01221A603B4B9C
:100E3C001B680133394A1360334B03221A700120AB
:100E4C00FFF7FAFD0346002B04D0334B1B6801332C
:100E5C00314A13600220FFF7EFFD0346002B03D04D
:100E6C002D4B1B682B4A1360642000F073F946E08D
:100E7C002A4B1B681846FFF797FA00224FF0FF31F8
:100E8C000020FFF7A5FB244B1B681846FFF71AFB45
:100E9C0000F096F90346002B33D00020FFF7CCFD71
:100EAC000346002B05D10020FFF7E0FD0346002B85
:100EBC0008D0194B01221A60184B01221A60124BF0
:100ECC0000221A700120FFF7B7FD0346002B04D057
:100EDC00114B1B680133104A13600220FFF7ACFD65
:100EEC000346002B03D00C4B1B68094A136064208B
:100EFC0000F030F905E000BF04E000BF02E000BFE5
:100F0C0000E000BF00BF80BD0A0000200C000020E4
:100F1C001000002014000020180000201C000020ED
:100F2C0080B485B000AF154B9B69144A43F00103A4
:100F3C009361124B9B6903F00103BB60BB680F4BC1
:100F4C00DB690E4A43F08053D3610C4BDB6903F031
:100F5C0080537B607B680A4B5B68FB60FB6823F00B
:100F6C00E063FB60FB6843F08063FB60044AFB6852
:100F7C00536000BF1437BD4680BC70470010024060
:100F8C000000014080B584B000AF78607B681B68BE
:100F9C00B3F1804F13D10C4BDB690B4A43F00103C7
:100FAC00D361094BDB6903F00103FB60FB68002292
:100FBC0000211C2000F033FB1C2000F04CFB00BF78
:100FCC001037BD4680BD00BF0010024080B400AF9A
:100FDC00FEE780B400AFFEE780B400AFFEE780B45C
:100FEC0000AFFEE780B400AFFEE780B400AF00BFF7
:100FFC00BD4680BC704780B400AF00BFBD4680BC0E
:10100C00704780B400AF00BFBD4680BC704780B550
:10101C0000AF00F011FA00BF80BD000080B500AF3A
:10102C00024801F079F900BF80BD00BF9400002098
:10103C0080B400AF00BFBD4680BC704780B483B0A5
:10104C0000AF78607B68084A82FB03129210DB17B2
:10105C00D31A064A1360064B00221A6000BF0C37E5
:10106C00BD4680BC704700BF676666666C0000209A
:10107C007000002080B400AF094B1B68002B0BDD07
:10108C00074B1B68013B064A1360054B1B68002B82
:10109C0002D1044B01221A6000BFBD4680BC7047D0
:1010AC006C0000207000002080B400AF054B1B6862
:1010BC00012B01D1012300E000231846BD4680BC62
:1010CC00704700BF7000002080B483B000AF786020
:1010DC007B68084A82FB03129210DB17D31A064A6C
:1010EC001360064B00221A6000BF0C37BD4680BC53
:1010FC00704700BF676666667400002078000020A9
:10110C0080B400AF094B1B68002B0BDD074B1B6831
:10111C00013B064A1360054B1B68002B02D1044BA4
:10112C0001221A6000BFBD4680BC704774000020CD
:10113C007800002080B400AF054B1B68012B01D157
:10114C00012300E000231846BD4680BC704700BF59
:10115C007800002080B483B000AF78607B68084AC8
:10116C0082FB03129210DB17D31A064A1360064B4C
:10117C0000221A6000BF0C37BD4680BC704700BF10
:10118C00676666667C0000208000002080B400AF9B
:10119C00094B1B68002B0BDD074B1B68013B064AF8
:1011AC001360054B1B68002B02D1044B01221A6003
:1011BC0000BFBD4680BC70477C0000208000002032
:1011CC0080B400AF054B1B68012B01D1012300E05B
:1011DC0000231846BD4680BC704700BF800000202D
:1011EC0080B483B000AF78607B68084A82FB03123E
:1011FC009210DB17D31A064A1360064B00221A60B2
:10120C0000BF0C37BD4680BC704700BF6766666682
:10121C00840000208800002080B400AF094B1B68BC
:10122C00002B0BDD074B1B68013B064A1360054B7B
:10123C001B68002B02D1044B01221A6000BFBD4673
:10124C0080BC7047840000208800002080B400AF70
:10125C00054B1B68012B01D1012301E04FF0FF333B
:10126C001846BD4680BC70478800002080B483B00F
:10127C0000AF78607B68084A82FB03129210DB1780
:10128C00D31A064A1360064B00221A6000BF0C37B3
:10129C00BD4680BC704700BF676666668C00002048
:1012AC009000002080B400AF104B1B68002B19DDA0
:1012BC000E4B1B68013B0D4A13600C4B1B68312B0A
:1012CC0002D10B4B03221A60084B1B68192B02D15D
:1012DC00074B02221A60054B1B68002B02D1044BF2
:1012EC0001221A6000BFBD4680BC70478C000020F4
:1012FC009000002080B400AF0B4B1B68032B01D176
:10130C0003230DE0084B1B68022B01D1022307E0DD
:10131C00054B1B68012B01D1012301E04FF0FF337A
:10132C001846BD4680BC70479000002080B582B046
:10133C0000AF7860FFF79EFEFFF7E2FEFFF726FF97
:10134C00FFF76AFFFFF7AEFF7B681B68B3F1804FB6
:10135C0001D1FFF70DFB00BF0837BD4680BD000073
:10136C000C480D490D4A002302E0D458C4500433F4
:10137C00C4188C42F9D30A4A0A4C002301E01360CA
:10138C000432A242FBD3FFF753FE01F00DFBFFF733
:10139C0087FB7047000000202C0000204C2A00081E
:1013AC002C000020E0000020FEE7000080B500AF1C
:1013BC00084B1B68074A43F010031360032000F02E
:1013CC0023F90F2000F008F8FFF7AAFD00231846B8
:1013DC0080BD00BF0020024080B582B000AF7860B5
:1013EC00124B1A68124B1B7819464FF47A73B3FBE5
:1013FC00F1F3B2FBF3F3184600F03BF90346002B74
:10140C0001D001230EE07B680F2B0AD800227968EB
:10141C004FF0FF3000F003F9064A7B68136000239D
:10142C0000E0012318460837BD4680BD200000208F
:10143C00280000202400002080B400AF054B1B784E
:10144C001A46054B1B681344034A136000BFBD4684
:10145C0080BC704728000020DC00002080B400AF66
:10146C00024B1B681846BD4680BC7047DC00002050
:10147C0080B485B000AF78607B6803F00703FB6035
:10148C000C4BDB68BB60BA684FF6FF031340BB60C4
:10149C00FB681A02BB68134343F0BF6343F4003389
:1014AC00BB60044ABB68D36000BF1437BD4680BC28
:1014BC00704700BF00ED00E080B400AF044BDB6868
:1014CC001B0A03F007031846BD4680BC704700BFDB
:1014DC0000ED00E080B483B000AF0346FB7197F9D8
:1014EC000730002B0BDBFB7903F01F02064997F941
:1014FC0007305B09012000FA02F241F8232000BFFB
:10150C000C37BD4680BC704700E100E080B483B06E
:10151C0000AF03463960FB7197F90730002B0ADBEB
:10152C003B68DAB20C4997F907301201D2B20B447E
:10153C0083F800230AE03B68DAB20849FB7903F030
:10154C000F03043B1201D2B20B441A7600BF0C37C6
:10155C00BD4680BC704700BF00E100E000ED00E03C
:10156C0080B489B000AFF860B9607A60FB6803F0B2
:10157C000703FB61FB69C3F10703042B28BF04239A
:10158C00BB61FB690433062B02D9FB69033B00E00A
:10159C0000237B614FF0FF32BB6902FA03F3DA439D
:1015AC00BB681A407B699A404FF0FF317B6901FAA6
:1015BC0003F3D9437B680B40134318462437BD46CD
:1015CC0080BC704780B582B000AF78607B68013B0F
:1015DC00B3F1807F01D301230FE00A4A7B68013B02
:1015EC0053600F214FF0FF30FFF790FF054B0022A7
:1015FC009A60044B07221A60002318460837BD4630
:10160C0080BD00BF10E000E080B582B000AF786014
:10161C007868FFF72DFF00BF0837BD4680BD80B549
:10162C0086B000AF0346B9607A60FB7300237B6120
:10163C00FFF742FF78617A68B9687869FFF790FF25
:10164C00024697F90F3011461846FFF75FFF00BFAF
:10165C001837BD4680BD80B582B000AF0346FB7124
:10166C0097F907301846FFF735FF00BF0837BD461E
:10167C0080BD80B582B000AF78607868FFF7A2FFBC
:10168C00034618460837BD4680BD000080B48BB0B9
:10169C0000AF7860396000237B6200233B6248E135
:1016AC0001227B6A02FA03F3FB613B681B68FA694F
:1016BC001340BB61BA69FB699A4240F037813B68C1
:1016CC005B68A34A93425ED0A14A934275D8A14A63
:1016DC00934258D09F4A93426FD89F4A934252D01C
:1016EC009D4A934269D89D4A93424CD09B4A93425F
:1016FC0063D89B4A934246D0994A93425DD8122BA9
:10170C002AD8122B59D801A252F823F093170008AB
:10171C006D1700087F170008C1170008C7170008CD
:10172C00C7170008C7170008C7170008C717000815
:10173C00C7170008C7170008C7170008C717000805
:10174C00C7170008C7170008C7170008C7170008F5
:10175C007517000889170008824A934213D02CE0B1
:10176C003B68DB683B6229E03B68DB6804333B6227
:10177C0024E03B68DB6808333B621FE03B68DB68B6
:10178C000C333B621AE03B689B68002B02D10423AC
:10179C003B6213E03B689B68012B05D108233B623D
:1017AC007B68FA691A6109E008233B627B68FA6975
:1017BC005A6103E000233B6200E000BFBB69FF2BD2
:1017CC0001D87B6801E07B6804337B61BB69FF2B2C
:1017DC0002D87B6A9B0002E07B6A083B9B003B6162
:1017EC007B691A680F213B6901FA03F3DB431A404A
:1017FC00396A3B6901FA03F31A437B691A603B6847
:10180C005B6803F08053002B00F09080564B9B6973
:10181C00554A43F001039361534B9B6903F0010359
:10182C00BB60BB68514A7B6A9B08023352F8233079
:10183C00FB607B6A03F003039B000F2202FA03F3A5
:10184C00DB43FA681340FB607B68494A93420DD036
:10185C007B68484A934207D07B68474A934201D140
:10186C00022304E0032302E0012300E000237A6A50
:10187C0002F0030292009340FA681343FB603B4969
:10188C007B6A9B080233FA6841F823203B685B684B
:10189C0003F48033002B06D0384B1A683749BB69E8
:1018AC0013430B6006E0354B1A68BB69DB433349C5
:1018BC0013400B603B685B6803F40033002B06D0CD
:1018CC002E4B5A682D49BB6913434B6006E02B4BDA
:1018DC005A68BB69DB43294913404B603B685B6822
:1018EC0003F48013002B06D0244B9A682349BB6960
:1018FC0013438B6006E0214B9A68BB69DB431F499D
:10190C0013408B603B685B6803F40013002B06D01C
:10191C001A4BDA681949BB691343CB6006E0174BC5
:10192C00DA68BB69DB4315491340CB607B6A013332
:10193C007B623B681A687B6A22FA03F3002B7FF404
:10194C00AFAE00BF00BF2C37BD4680BC704700BF98
:10195C000000321000003110000022100000211095
:10196C000000121000001110001002400000014095
:10197C0000080140000C014000100140000401402F
:10198C0080B485B000AF78600B467B807B689A682A
:10199C007B881340002B02D00123FB7301E0002352
:1019AC00FB73FB7B18461437BD4680BC704780B474
:1019BC0083B000AF78600B467B8013467B707B78DE
:1019CC00002B03D07A887B681A6103E07B881A04A9
:1019DC007B681A6100BF0C37BD4680BC704780B471
:1019EC0085B000AF78600B467B807B68DB68FB6062
:1019FC007A88FB6813401A04FB68D9437B880B4038
:101A0C001A437B681A6100BF1437BD4680BC70470F
:101A1C0080B586B000AF78607B68002B01D10123C4
:101A2C006CE27B681B6803F00103002B00F08780DD
:101A3C00924B5B6803F00C03042B0CD08F4B5B6850
:101A4C0003F00C03082B12D18C4B5B6803F480332E
:101A5C00B3F5803F0BD1894B1B6803F40033002B8B
:101A6C006CD07B685B68002B68D1012346E27B68F5
:101A7C005B68B3F5803F06D1804B1B687F4A43F40B
:101A8C00803313602EE07B685B68002B0CD17B4BA2
:101A9C001B687A4A23F480331360784B1B68774AAF
:101AAC0023F4802313601DE07B685B68B3F5A02FE3
:101ABC000CD1724B1B68714A43F4802313606F4B3B
:101ACC001B686E4A43F4803313600BE06B4B1B684E
:101ADC006A4A23F480331360684B1B68674A23F40B
:101AEC00802313607B685B68002B13D0FFF7B6FC78
:101AFC00386108E0FFF7B2FC02463B69D31A642B4D
:101B0C0001D90323FAE15D4B1B6803F40033002B6E
:101B1C00F0D014E0FFF7A2FC386108E0FFF79EFC60
:101B2C0002463B69D31A642B01D90323E6E1534BDC
:101B3C001B6803F40033002BF0D100E000BF7B687E
:101B4C001B6803F00203002B63D04C4B5B6803F063
:101B5C000C03002B0BD0494B5B6803F00C03082BD8
:101B6C001CD1464B5B6803F48033002B16D1434BDE
:101B7C001B6803F00203002B05D07B681B69012B4B
:101B8C0001D00123BAE13D4B1B6823F0F8027B68BE
:101B9C005B69DB00394913430B603AE07B681B69D6
:101BAC00002B20D0364B01221A60FFF757FC38610E
:101BBC0008E0FFF753FC02463B69D31A022B01D90C
:101BCC0003239BE12D4B1B6803F00203002BF0D089
:101BDC002A4B1B6823F0F8027B685B69DB00274902
:101BEC0013430B6015E0264B00221A60FFF736FCFE
:101BFC00386108E0FFF732FC02463B69D31A022B2E
:101C0C0001D903237AE11D4B1B6803F00203002B5F
:101C1C00F0D17B681B6803F00803002B3AD07B687B
:101C2C009B69002B19D0174B01221A60FFF716FC89
:101C3C00386108E0FFF712FC02463B69D31A022B0D
:101C4C0001D903235AE10D4B5B6A03F00203002B0D
:101C5C00F0D0012000F0A6FA1CE00A4B00221A601A
:101C6C00FFF7FCFB38610FE0FFF7F8FB02463B691E
:101C7C00D31A022B08D9032340E100BF0010024005
:101C8C0000004242800442429E4B5B6A03F0020316
:101C9C00002BE9D17B681B6803F00403002B00F0D8
:101CAC00A6800023FB75974BDB6903F08053002B58
:101CBC000DD1944BDB69934A43F08053D361914B24
:101CCC00DB6903F08053BB60BB680123FB758E4B53
:101CDC001B6803F48073002B18D18B4B1B688A4A4A
:101CEC0043F480731360FFF7B9FB386108E0FFF72A
:101CFC00B5FB02463B69D31A642B01D90323FDE0E3
:101D0C00814B1B6803F48073002BF0D07B68DB687D
:101D1C00012B06D17B4B1B6A7A4A43F001031362F9
:101D2C002DE07B68DB68002B0CD1764B1B6A754A67
:101D3C0023F001031362734B1B6A724A23F00403F2
:101D4C0013621CE07B68DB68052B0CD16D4B1B6AA6
:101D5C006C4A43F0040313626A4B1B6A694A43F0F2
:101D6C00010313620BE0674B1B6A664A23F0010305
:101D7C001362644B1B6A634A23F0040313627B688F
:101D8C00DB68002B15D0FFF769FB38610AE0FFF721
:101D9C0065FB02463B69D31A41F28832934201D962
:101DAC000323ABE0574B1B6A03F00203002BEED06E
:101DBC0014E0FFF753FB38610AE0FFF74FFB0246D4
:101DCC003B69D31A41F28832934201D9032395E03F
:101DDC004C4B1B6A03F00203002BEED1FB7D012B55
:101DEC0005D1484BDB69474A23F08053D3617B68AC
:101DFC00DB69002B00F08180424B5B6803F00C0325
:101E0C00082B61D07B68DB69022B46D13F4B00224B
:101E1C001A60FFF723FB386108E0FFF71FFB02464F
:101E2C003B69D31A022B01D9032367E0354B1B689E
:101E3C0003F00073002BF0D17B681B6AB3F5803F75
:101E4C0008D1304B5B6823F400327B689B682D49CA
:101E5C0013434B602B4B5B6823F474127B68196A39
:101E6C007B685B6A0B43274913434B60274B01226A
:101E7C001A60FFF7F3FA386108E0FFF7EFFA024651
:101E8C003B69D31A022B01D9032337E01D4B1B6886
:101E9C0003F00073002BF0D02FE01C4B00221A60D3
:101EAC00FFF7DCFA386108E0FFF7D8FA02463B6925
:101EBC00D31A022B01D9032320E0124B1B6803F029
:101ECC000073002BF0D118E07B68DB69012B01D18A
:101EDC00012313E00B4B5B68FB60FB6803F480325F
:101EEC007B681B6A9A4206D1FB6803F470127B680C
:101EFC005B6A9A4201D0012300E000231846183790
:101F0C00BD4680BD0010024000700040600042429F
:101F1C0080B584B000AF786039607B68002B01D14C
:101F2C000123D0E06A4B1B6803F007033A689A421E
:101F3C0010D9674B1B6823F0070265493B681343B4
:101F4C000B60634B1B6803F007033A689A4201D09D
:101F5C000123B8E07B681B6803F00203002B20D040
:101F6C007B681B6803F00403002B05D0594B5B689E
:101F7C00584A43F4E06353607B681B6803F0080322
:101F8C00002B05D0534B5B68524A43F460535360AB
:101F9C00504B5B6823F0F0027B689B684D49134300
:101FAC004B607B681B6803F00103002B40D07B68FF
:101FBC005B68012B07D1474B1B6803F40033002BE4
:101FCC0015D101237FE07B685B68022B07D1414B65
:101FDC001B6803F00073002B09D1012373E03D4B08
:101FEC001B6803F00203002B01D101236BE0394B7A
:101FFC005B6823F003027B685B68364913434B60D4
:10200C00FFF72CFAF8600AE0FFF728FA0246FB68A3
:10201C00D31A41F28832934201D9032353E02D4B5A
:10202C005B6803F00C027B685B689B009A42EBD107
:10203C00274B1B6803F007033A689A4210D2244BD3
:10204C001B6823F0070222493B6813430B60204BAB
:10205C001B6803F007033A689A4201D0012332E06F
:10206C007B681B6803F00403002B08D0194B5B68DA
:10207C0023F4E0627B68DB68164913434B607B6892
:10208C001B6803F00803002B09D0124B5B6823F488
:10209C0060527B681B69DB000E4913434B6000F0F8
:1020AC0021F802460B4B5B681B0903F00F030A492E
:1020BC00CB5C22FA03F3094A1360094B1B681846E0
:1020CC00FFF78AF9002318461037BD4680BD00BFC4
:1020DC000020024000100240342A0008200000209A
:1020EC002400002090B48AB000AF2A4B3C1D0FCBCB
:1020FC0084E80F0040F201233B800023FB610023A6
:10210C00BB6100237B6200237B6100233B62224B7B
:10211C005B68FB61FB6903F00C03042B02D0082BFA
:10212C0003D02DE01D4B3B622DE0FB699B0C03F0B3
:10213C000F0307F12802134413F8243C7B61FB695D
:10214C0003F48033002B13D0134B5B685B0C03F050
:10215C00010307F12802134413F8283CBB617B6987
:10216C000E4A02FB03F2BB69B2FBF3F37B6204E0A1
:10217C007B690B4A02FB03F37B627B6A3B6202E0E6
:10218C00064B3B6200BF3B6A18462837BD4690BCE5
:10219C00704700BF242A00080010024000127A0089
:1021AC0000093D0080B485B000AF78600A4B1B6815
:1021BC000A4AA2FB03235B0A7A6802FB03F3FB6067
:1021CC0000BFFB685A1EFA60002BF9D100BF00BF9C
:1021DC001437BD4680BC704720000020D34D6210E0
:1021EC0080B582B000AF78607B68002B01D10123F1
:1021FC0041E07B6893F83D30DBB2002B06D17B6865
:10220C00002283F83C207868FEF7BCFE7B68022233
:10221C0083F83D207B681A687B68043319461046A6
:10222C0000F06AFA7B68012283F846207B68012261
:10223C0083F83E207B68012283F83F207B680122D3
:10224C0083F840207B68012283F841207B680122BF
:10225C0083F842207B68012283F843207B680122AB
:10226C0083F844207B68012283F845207B68012297
:10227C0083F83D20002318460837BD4680BD00007A
:10228C0080B485B000AF78607B6893F83D30DBB2EA
:10229C00012B01D0012335E07B68022283F83D201D
:1022AC007B681B68DA687B681B6842F00102DA60A5
:1022BC007B681B68164A934209D07B681B68B3F194
:1022CC00804F04D07B681B68124A934211D17B6803
:1022DC001B689B6803F00703FB60FB68062B10D0A0
:1022EC007B681B681A687B681B6842F001021A60E5
:1022FC0007E07B681B681A687B681B6842F0010268
:10230C001A60002318461437BD4680BC704700BFC6
:10231C00002C01400004004080B582B000AF786012
:10232C007B681B681B6903F00203022B22D17B68BC
:10233C001B68DB6803F00203022B1BD17B681B6854
:10234C006FF002021A617B6801221A777B681B68A6
:10235C009B6903F00303002B03D0786800F0B1F9FC
:10236C0005E0786800F0A4F9786800F0B3F97B68B0
:10237C0000221A777B681B681B6903F00403042B8B
:10238C0022D17B681B68DB6803F00403042B1BD190
:10239C007B681B686FF004021A617B6802221A7753
:1023AC007B681B689B6903F44073002B03D078682F
:1023BC0000F087F905E0786800F07AF9786800F0A9
:1023CC0089F97B6800221A777B681B681B6903F00C
:1023DC000803082B22D17B681B68DB6803F0080319
:1023EC00082B1BD17B681B686FF008021A617B6895
:1023FC0004221A777B681B68DB6903F00303002B4C
:10240C0003D0786800F05DF905E0786800F050F9C9
:10241C00786800F05FF97B6800221A777B681B688C
:10242C001B6903F01003102B22D17B681B68DB683F
:10243C0003F01003102B1BD17B681B686FF010028C
:10244C001A617B6808221A777B681B68DB6903F4C6
:10245C004073002B03D0786800F033F905E07868FE
:10246C0000F026F9786800F035F97B6800221A77BD
:10247C007B681B681B6903F00103012B0ED17B6881
:10248C001B68DB6803F00103012B07D17B681B6819
:10249C006FF001021A617868FEF748FF7B681B68D1
:1024AC001B6903F08003802B0ED17B681B68DB68F3
:1024BC0003F08003802B07D17B681B686FF08002D0
:1024CC001A61786800F067FA7B681B681B6903F077
:1024DC004003402B0ED17B681B68DB6803F0400384
:1024EC00402B07D17B681B686FF040021A6178683B
:1024FC0000F0F9F87B681B681B6903F02003202BA4
:10250C000ED17B681B68DB6803F02003202B07D1FE
:10251C007B681B686FF020021A61786800F032FA51
:10252C0000BF0837BD4680BD80B584B000AF786071
:10253C0039607B6893F83C30012B01D10223B3E066
:10254C007B68012283F83C207B68022283F83D20C3
:10255C007B681B689B68FB60FB6823F07703FB6060
:10256C00FB6823F47F43FB607B681B68FA689A6006
:10257C003B681B68B3F5005F3ED0B3F5005F00F21B
:10258C008780B3F5805F00F08580B3F5805F7FD8DE
:10259C00702B1AD0702B7BD8602B50D0602B77D837
:1025AC00502B3CD0502B73D8402B58D0402B6FD88D
:1025BC00302B64D0302B6BD8202B60D0202B67D8DD
:1025CC00002B5CD0102B5AD062E07B6818683B68FB
:1025DC0099683B685A683B68DB6800F05CF97B687B
:1025EC001B689B68FB60FB6843F07703FB607B68B0
:1025FC001B68FA689A604EE07B6818683B689968BB
:10260C003B685A683B68DB6800F045F97B681B68DF
:10261C009A687B681B6842F480429A603BE07B6856
:10262C0018683B6859683B68DB681A4600F0BCF8D0
:10263C007B681B685021184600F013F92BE07B686F
:10264C0018683B6859683B68DB681A4600F0DAF892
:10265C007B681B686021184600F003F91BE07B685F
:10266C0018683B6859683B68DB681A4600F09CF8B0
:10267C007B681B684021184600F0F3F80BE07B6880
:10268C001A683B681B681946104600F0EAF802E02D
:10269C0000BF00E000BF7B68012283F83D207B680F
:1026AC00002283F83C20002318461037BD4680BD1D
:1026BC0080B483B000AF786000BF0C37BD4680BCDF
:1026CC00704780B483B000AF786000BF0C37BD4654
:1026DC0080BC704780B483B000AF786000BF0C370B
:1026EC00BD4680BC704780B483B000AF786000BF3B
:1026FC000C37BD4680BC704780B485B000AF7860A5
:10270C0039607B681B68FB607B68254A934207D065
:10271C007B68B3F1804F03D07B68224A934208D187
:10272C00FB6823F07003FB603B685B68FA6813433B
:10273C00FB607B681A4A934207D07B68B3F1804FE9
:10274C0003D07B68174A934208D1FB6823F440738B
:10275C00FB603B68DB68FA681343FB60FB6823F0A3
:10276C0080023B685B691343FB607B68FA681A6004
:10277C003B689A687B68DA623B681A687B689A6285
:10278C007B68074A934203D13B681A697B681A63DA
:10279C007B6801225A6100BF1437BD4680BC70476C
:1027AC00002C01400004004080B487B000AFF860FA
:1027BC00B9607A60FB681B6A7B61FB681B6A23F05B
:1027CC000102FB681A62FB689B693B613B6923F061
:1027DC00F0033B617B681B013A6913433B617B69E6
:1027EC0023F00A037B617A69BB6813437B61FB6846
:1027FC003A699A61FB687A691A6200BF1C37BD4658
:10280C0080BC704780B487B000AFF860B9607A6064
:10281C00FB681B6A23F01002FB681A62FB689B6959
:10282C007B61FB681B6A3B617B6923F470437B61B2
:10283C007B681B037A6913437B613B6923F0A0031C
:10284C003B61BB681B013A6913433B61FB687A69C6
:10285C009A61FB683A691A6200BF1C37BD4680BC9E
:10286C00704780B485B000AF786039607B689B6836
:10287C00FB60FB6823F07003FB603A68FB68134352
:10288C0043F00703FB607B68FA689A6000BF14375B
:10289C00BD4680BC704780B487B000AFF860B960AB
:1028AC007A603B60FB689B687B617B6923F47F43A8
:1028BC007B613B681A027B681A43BB6813437A69D5
:1028CC0013437B61FB687A699A6000BF1C37BD4675
:1028DC0080BC704780B485B000AF786039607B688D
:1028EC0093F83C30012B01D1022341E07B6801229B
:1028FC0083F83C207B68022283F83D207B681B68B0
:10290C005B68FB607B681B689B68BB60FB6823F0A3
:10291C007003FB603B681B68FA681343FB607B68C1
:10292C001B68FA685A607B681B68144A934209D08A
:10293C007B681B68B3F1804F04D07B681B68104A1E
:10294C0093420CD1BB6823F08003BB603B685B688F
:10295C00BA681343BB607B681B68BA689A607B6873
:10296C00012283F83D207B68002283F83C20002361
:10297C0018461437BD4680BC704700BF002C014080
:10298C000004004080B483B000AF786000BF0C3707
:10299C00BD4680BC704780B483B000AF786000BF88
:1029AC000C37BD4680BC704770B500260C4D0D4CE5
:1029BC00641BA410A64209D100F022F800260A4D8F
:1029CC000A4C641BA410A64205D170BD55F8043BFB
:1029DC0098470136EEE755F8043B98470136F2E785
:1029EC00442A0008442A0008442A0008482A0008FF
:1029FC0003460244934200D1704703F8011BF9E7E8
:102A0C00F8B500BFF8BC08BC9E467047F8B500BFCF
:082A1C00F8BC08BC9E4670479F
:102A240002030405060708090A0B0C0D0E0F10100B
:102A3400000000000000000001020304060708096A
:042A44003101000854
:042A48000D01000874
:102A4C000200000000200040008001000500000092
:102A5C000300000002000000010000000200000062
:0C2A6C000024F400100000000100000035
:040000050800136D6F
:00000001FF
